:020000040800F2
:10000000002800203D0F0008350D00083B0D0008BA
:10001000410D0008470D00084D0D000800000000CC
:10002000000000000000000000000000530D000868
:100030005F0D0008000000006B0D0008770D000840
:10004000850F0008850F0008850F0008850F000840
:10005000850F0008850F0008850F0008850F000830
:10006000850F0008850F0008850F0008850F000820
:10007000850F0008850F0008850F0008850F000810
:10008000850F0008850F0008850F0008850F000800
:10009000850F0008850F0008850F0008850F0008F0
:1000A000850F0008850F0008850F0008850F0008E0
:1000B000850D0008850F000800000000850F00086E
:1000C000850F00080000000000000000850F0008F8
:1000D00000000000850F0008850F000800000000E8
:1000E000850F0008850F0008850F0008000000003C
:1000F0000000000000000000000000000000000000
:0C01000000000000000000005FF808F1A3
:10010C0010B5054C237833B9044B13B10448AFF345
:10011C0000800123237010BD80000020000000002F
:10012C00DC25000808B5034B1BB103490348AFF3AA
:10013C00008008BD0000000084000020DC250008C1
:10014C0080B582B000AF00237B609DE0534A7B6892
:10015C0052F8232052497B6841F82320514A7B688E
:10016C0052F823204D497B6841F823207B68002BF3
:10017C000AD102214C4801F0EBF903461946494AD1
:10018C007B6842F8231017E07B68012B0AD104210D
:10019C00454801F0DDF903461946424A7B6842F8AE
:1001AC00231009E00821404801F0D2F90346194612
:1001BC003C4A7B6842F82310384A7B6852F823206B
:1001CC0038497B6851F823309A425AD1334A7B68BC
:1001DC0052F8232032497B6851F823309A4250D18F
:1001EC002F4A7B6852F8232030497B6851F8233022
:1001FC009A4226D02A4A7B6852F823202B497B68E6
:10020C0041F82320294A7B6852F82330002B0DD16A
:10021C007B68012B04D1264A7B68462142F82310C7
:10022C00244A7B68012142F823102AE0214A7B688A
:10023C00002142F823101E4A7B68002142F823104B
:10024C001FE07B68012B0ED1194A7B6852F82330D2
:10025C00002B08DD164A7B6852F823305A1E1449CD
:10026C007B6841F823207B68012B0AD1104A7B68FC
:10027C0052F82330002B04D10C4A7B68012142F840
:10028C0023107B6801337B607B68022B7FF75EAFAA
:10029C0000BF00BF0837BD4680BD00BF0C0000206A
:1002AC00180000200000002000080140240000205D
:1002BC00300000209C00002080B582B000AF786038
:1002CC00324A7B6852F82330DBB203F00103DBB215
:1002DC001A4601212E4801F052F92C4A7B6852F83B
:1002EC0023305B10DBB203F00103DBB21A460221B0
:1002FC00274801F044F9254A7B6852F823309B10BB
:10030C00DBB203F00103DBB21A460421204801F0F2
:10031C0036F91E4A7B6852F82330DB10DBB203F04F
:10032C000103DBB21A460821194801F028F9174AD3
:10033C007B6852F823301B11DBB203F00103DBB2F4
:10034C001A461021124801F01AF9104A7B6852F82B
:10035C0023305B11DBB203F00103DBB21A46202120
:10036C000B4801F00CF9094A7B6852F823309B11B9
:10037C00DBB203F00103DBB21A464021044801F062
:10038C00FEF800BF0837BD4680BD00BF3C00002012
:10039C00000C014080B582B000AF7860354A7B68B4
:1003AC0052F82330DBB203F00103DBB21A464FF4F0
:1003BC008071314801F0E3F82E4A7B6852F8233003
:1003CC005B10DBB203F00103DBB21A464FF4007191
:1003DC00294801F0D4F8274A7B6852F823309B1047
:1003EC00DBB203F00103DBB21A464FF48061224802
:1003FC0001F0C5F81F4A7B6852F82330DB10DBB2E2
:10040C0003F00103DBB21A464FF400611A4801F005
:10041C00B6F8184A7B6852F823301B11DBB203F094
:10042C000103DBB21A464FF48051134801F0A7F8D0
:10043C00104A7B6852F823305B11DBB203F00103E6
:10044C00DBB21A464FF400510B4801F098F8094AF8
:10045C007B6852F823309B11DBB203F00103DBB253
:10046C001A464FF48041044801F089F800BF083760
:10047C00BD4680BD3C000020000C014080B584B01E
:10048C0000AFF860B9607A60FB68002B03D0FB68A2
:10049C00012B2DD063E000224FF48061324801F033
:1004AC006EF801224FF400612F4801F068F8BB6828
:1004BC002E4A82FB03129210DB17D31A1846FFF751
:1004CC00FBFE00224FF48051274801F058F801221E
:1004DC004FF40051244801F052F87B68234A82FB08
:1004EC0003129210DB17D31A1846FFF753FF36E0AE
:1004FC0001224FF480611C4801F041F800224FF4B6
:10050C000061194801F03BF8BA68184B83FB0213E1
:10051C009910D317C91A0B469B000B445B00D11AD8
:10052C000846FFF7C9FE01224FF480510E4801F036
:10053C0026F800224FF400510B4801F020F87A689D
:10054C000A4B83FB02139910D317C91A0B469B0055
:10055C000B445B00D11A0846FFF71CFF00BF00BF1D
:10056C001037BD4680BD00BF000801406766666657
:10057C0080B500AF794B1B68013B042B00F2E38084
:10058C0001A252F823F000BFA9050008D905000804
:10059C0081060008C70600080D0700086F4B0222F1
:1005AC001A606F4B1B68184600F0D2FA6C4B5B68F4
:1005BC00184600F0E9FA6B4B00221A606A4B0122D4
:1005CC001A604FF4FA7000F0FBFAC5E0674B1B6839
:1005DC00012B15D1634B1B68591C654B83FB0132F6
:1005EC00CB17D21A13465B001344CA1A5D4B1A6020
:1005FC005C4B1B685A4A52F82330184600F0A8FA94
:10060C005C4B1B68012B15D1574B1B68591C584B65
:10061C0083FB0132CB17D21A13465B001344CA1A60
:10062C00514B1A60504B1B684D4A52F823301846F8
:10063C0000F0AAFA504B1B68002B09D04FF4FA704B
:10064C0000F0BEFA4D4B1B68C3F101034B4A13601B
:10065C004B4B1B68012B78D1494B00221A60494B3C
:10066C004FF6FF72DA60484B00221A603B4B0322B4
:10067C001A606AE0404B1B68002B0CD04FF4FA70E8
:10068C0000F09EFA3D4B1B68C3F101033B4A13601B
:10069C00002000F017FC3A4B1B68012B57D1384B4C
:1006AC0000221A60374B4FF6FF72DA60364B00228D
:1006BC001A602A4B04221A6049E02F4B1B68002B4E
:1006CC000CD04FF4FA7000F07BFA2C4B1B68C3F182
:1006DC0001032A4A1360022000F0F4FB284B1B682C
:1006EC00012B36D1264B00221A60264B4FF6FF7297
:1006FC00DA60254B00221A60184B05221A6028E09C
:10070C001D4B1B68002B0CD04FF4FA7000F058FAFC
:10071C001A4B1B68C3F10103184A1360012000F047
:10072C00D1FB174B1B68012B15D1154B00221A60FE
:10073C00144B4FF6FF72DA60134B00221A60074B12
:10074C0001221A6007E000BF06E000BF04E000BF12
:10075C0002E000BF00E000BF00BF80BDB40000207D
:10076C0064000020A800002070000020C4000020BD
:10077C0056555555C8000020CC000020B000002074
:10078C009C00002000080140AC00002080B500AFA8
:10079C005A4B1B68023B032B00F2AD8001A252F8AE
:1007AC0023F000BFC1070008010800085708000823
:1007BC00AD080008524B1B68184600F0EDFA514B7F
:1007CC001B68184600F030FB4F4B18684F4B1B68EA
:1007DC004F4A82FB03125211DB17D11A4D4B1B6887
:1007EC004B4A82FB03C25211DB17D31A1A46FFF78E
:1007FC0045FE81E0484B5B68002B0ED0464B002237
:10080C005A60464B1B680133444A1360434B1B68C8
:10081C00632B02DD414B63221A603F4B9B68002B1C
:10082C000AD03D4B00229A603C4B1B684FF47A7205
:10083C0002FB03F33A4A1360334B1B68374A1168C7
:10084C0002221846FFF71AFE56E0334B5B68002B6A
:10085C000ED0314B00225A60304B1B6801332F4AAB
:10086C0013602E4B1B68632B02DD2C4B63221A602A
:10087C00294B9B68002B0AD0274B00229A60274BF0
:10088C001B684FF47A7202FB03F3254A93601E4BEC
:10089C001B68224A116803221846FFF7EFFD2BE074
:1008AC001D4B5B68002B0ED01B4B00225A601B4B60
:1008BC001B680133194A1360184B1B68632B02DD4C
:1008CC00164B63221A60144B9B68002B0AD0124BF8
:1008DC0000229A60114B1B684FF47A7202FB03F3EF
:1008EC000F4A5360084B1B680C4A116804221846C7
:1008FC00FFF7C4FD00E000BF00BF80BDB4000020C6
:10090C00A800002070000020B0000020B8000020DB
:10091C001F85EB51BC0000209C000020AC00002087
:10092C006400002080B500AF00F028FB00F014F844
:10093C0000F09AF800F04CF8054801F089FA054BE4
:10094C0001221A60FFF714FEFFF720FFFAE700BF41
:10095C00D0000020B400002080B590B000AF07F1AB
:10096C00180328220021184601F02AFE3B1D002204
:10097C001A605A609A60DA601A610223BB61012323
:10098C00BB621023FB6200237B6307F1180318463C
:10099C0000F026FE0346002B01D000F0D3F80F2305
:1009AC007B600023BB600023FB6000233B610023C2
:1009BC007B613B1D0021184601F092F80346002B89
:1009CC0001D000F0BFF800BF4037BD4680BD00002D
:1009DC0080B586B000AF07F1080300221A605A6098
:1009EC009A60DA603B4600221A605A601D4B4FF049
:1009FC0080421A601B4B41F63F725A60194B002221
:100A0C009A60184B0A22DA60164B00221A61154BB9
:100A1C0000229A61134801F0CBF90346002B01D058
:100A2C0000F090F84FF48053BB6007F108031946AF
:100A3C000C4801F061FB0346002B01D000F082F85A
:100A4C0000233B6000237B603B461946054801F0C0
:100A5C0029FD0346002B01D000F074F800BF1837B5
:100A6C00BD4680BDD000002080B586B000AF07F138
:100A7C00080300221A605A609A60DA60284B9B695E
:100A8C00274A43F004039361254B9B6903F004034D
:100A9C007B607B68224B9B69214A43F0080393617E
:100AAC001F4B9B6903F008033B603B68002243F635
:100ABC00F0711C4800F063FD002247F67F711A4864
:100ACC0000F05DFD0E23BB600023FB6000233B6147
:100ADC0007F108031946134800F0C0FB43F6F07306
:100AEC00BB600123FB6000233B6102237B6107F1A8
:100AFC00080319460B4800F0B1FB47F67F73BB6047
:100B0C000123FB6000233B6102237B6107F1080397
:100B1C001946054800F0A2FB00BF1837BD4680BD42
:100B2C000010024000080140000C014080B582B06A
:100B3C0000AF786000F060F8FFF702FB00BF0837E9
:100B4C00BD4680BD80B400AF72B600BFFEE70000AA
:100B5C0080B483B000AF78607B68084A82FB0312D4
:100B6C009210DB17D31A064A1360064B00221A6048
:100B7C0000BF0C37BD4680BC704700BF6766666619
:100B8C00B8000020C400002080B483B000AF7860AF
:100B9C007B68084A82FB03129210DB17D31A064AB1
:100BAC001360064B00221A6000BF0C37BD4680BC98
:100BBC00704700BF67666666BC000020C800002056
:100BCC0080B483B000AF78607B68084A82FB031264
:100BDC009210DB17D31A064A1360064B00221A60D8
:100BEC0000BF0C37BD4680BC704700BF67666666A9
:100BFC00C0000020CC00002080B400AF194B1B6853
:100C0C00002B0BDD174B1B68013B164A1360154B71
:100C1C001B68002B02DC144B01221A60134B1B685F
:100C2C00002B0BDD114B1B68013B104A13600F4B63
:100C3C001B68002B02DC0E4B01221A600D4B1B684B
:100C4C00002B0BDD0B4B1B68013B0A4A1360094B55
:100C5C001B68002B02DC084B01221A6000BFBD464A
:100C6C0080BC7047B8000020C4000020BC000020ED
:100C7C00C8000020C0000020CC00002080B485B04B
:100C8C0000AF154B9B69144A43F001039361124B5F
:100C9C009B6903F00103BB60BB680F4BDB690E4A19
:100CAC0043F08053D3610C4BDB6903F080537B60C2
:100CBC007B680A4B5B68FB60FB6823F0E063FB60BE
:100CCC00FB6843F08063FB60044AFB68536000BF21
:100CDC001437BD4680BC7047001002400000014034
:100CEC0080B584B000AF78607B681B68B3F1804F2F
:100CFC0013D10C4BDB690B4A43F00103D361094B55
:100D0C00DB6903F00103FB60FB68002200211C205F
:100D1C0000F06DFA1C2000F086FA00BF1037BD46BB
:100D2C0080BD00BF0010024080B400AFFEE780B46D
:100D3C0000AFFEE780B400AFFEE780B400AFFEE783
:100D4C0080B400AFFEE780B400AF00BFBD4680BCEE
:100D5C00704780B400AF00BFBD4680BC704780B404
:100D6C0000AF00BFBD4680BC704780B500AF00F03F
:100D7C004BF900BF80BD000080B500AF024801F008
:100D8C00B3F800BF80BD00BFD000002080B400AF1E
:100D9C0000BFBD4680BC704780B582B000AF7860A4
:100DAC007B68022B29D07B68022B36DC7B68002BFE
:100DBC0003D07B68012B10D02FE0002210211948A2
:100DCC0000F0DDFB01222021164800F0D8FB0122A7
:100DDC004021144800F0D3FB20E0012210211148DF
:100DEC0000F0CDFB012220210E4800F0C8FB0022B0
:100DFC0040210C4800F0C3FB10E0012210210948EF
:100E0C0000F0BDFB00222021064800F0B8FB0122B7
:100E1C004021044800F0B3FB00E000BF00BF0837DE
:100E2C00BD4680BD0008014080B582B000AF78603F
:100E3C007B68022B2DD07B68022B3CDC7B68002B63
:100E4C0003D07B68012B12D035E0002280211C4896
:100E5C0000F095FB01224FF48071194800F08FFBD4
:100E6C0001224FF40071164800F089FB24E00122A6
:100E7C008021134800F083FB01224FF4807110484D
:100E8C0000F07DFB00224FF400710D4800F077FB61
:100E9C0012E0012280210A4800F071FB00224FF47D
:100EAC008071074800F06BFB01224FF4007104487D
:100EBC0000F065FB00E000BF00BF0837BD4680BDF9
:100ECC000008014080B582B000AF78607B68022BCF
:100EDC001CD07B68022B23DC7B68002B03D07B6847
:100EEC00012B09D01CE01021104800F060FB802180
:100EFC000E4800F05CFB14E040210C4800F057FB5E
:100F0C004FF40071094800F052FB0AE02021074819
:100F1C0000F04DFB4FF48071044800F048FB00E0FA
:100F2C0000BF00BF0837BD4680BD00BF00080140B0
:100F3C000C480D490D4A002302E0D458C450043328
:100F4C00C4188C42F9D30A4A0A4C002301E01360FE
:100F5C000432A242FBD3FFF719FF01F00DFBFFF7A0
:100F6C00E1FC704700000020800000201C260008D7
:100F7C00800000201C010020FEE7000080B500AFBF
:100F8C00084B1B68074A43F010031360032000F062
:100F9C0023F90F2000F008F8FFF770FE0023184625
:100FAC0080BD00BF0020024080B582B000AF7860E9
:100FBC00124B1A68124B1B7819464FF47A73B3FB19
:100FCC00F1F3B2FBF3F3184600F03BF90346002BA8
:100FDC0001D001230EE07B680F2B0AD80022796820
:100FEC004FF0FF3000F003F9064A7B6813600023D2
:100FFC0000E0012318460837BD4680BD7400002070
:10100C007C0000207800002080B400AF054B1B78DA
:10101C001A46054B1B681344034A136000BFBD46B8
:10102C0080BC70477C0000201801002080B400AF09
:10103C00024B1B681846BD4680BC70471801002047
:10104C0080B485B000AF78607B6803F00703FB6069
:10105C000C4BDB68BB60BA684FF6FF031340BB60F8
:10106C00FB681A02BB68134343F0BF6343F40033BD
:10107C00BB60044ABB68D36000BF1437BD4680BC5C
:10108C00704700BF00ED00E080B400AF044BDB689C
:10109C001B0A03F007031846BD4680BC704700BF0F
:1010AC0000ED00E080B483B000AF0346FB7197F90C
:1010BC000730002B0BDBFB7903F01F02064997F975
:1010CC0007305B09012000FA02F241F8232000BF2F
:1010DC000C37BD4680BC704700E100E080B483B0A3
:1010EC0000AF03463960FB7197F90730002B0ADB20
:1010FC003B68DAB20C4997F907301201D2B20B44B3
:10110C0083F800230AE03B68DAB20849FB7903F064
:10111C000F03043B1201D2B20B441A7600BF0C37FA
:10112C00BD4680BC704700BF00E100E000ED00E070
:10113C0080B489B000AFF860B9607A60FB6803F0E6
:10114C000703FB61FB69C3F10703042B28BF0423CE
:10115C00BB61FB690433062B02D9FB69033B00E03E
:10116C0000237B614FF0FF32BB6902FA03F3DA43D1
:10117C00BB681A407B699A404FF0FF317B6901FADA
:10118C0003F3D9437B680B40134318462437BD4601
:10119C0080BC704780B582B000AF78607B68013B43
:1011AC00B3F1807F01D301230FE00A4A7B68013B36
:1011BC0053600F214FF0FF30FFF790FF054B0022DB
:1011CC009A60044B07221A60002318460837BD4664
:1011DC0080BD00BF10E000E080B582B000AF786049
:1011EC007868FFF72DFF00BF0837BD4680BD80B57E
:1011FC0086B000AF0346B9607A60FB7300237B6155
:10120C00FFF742FF78617A68B9687869FFF790FF59
:10121C00024697F90F3011461846FFF75FFF00BFE3
:10122C001837BD4680BD80B582B000AF0346FB7158
:10123C0097F907301846FFF735FF00BF0837BD4652
:10124C0080BD80B582B000AF78607868FFF7A2FFF0
:10125C00034618460837BD4680BD000080B48BB0ED
:10126C0000AF7860396000237B6200233B6248E169
:10127C0001227B6A02FA03F3FB613B681B68FA6983
:10128C001340BB61BA69FB699A4240F037813B68F5
:10129C005B68A34A93425ED0A14A934275D8A14A97
:1012AC00934258D09F4A93426FD89F4A934252D050
:1012BC009D4A934269D89D4A93424CD09B4A934293
:1012CC0063D89B4A934246D0994A93425DD8122BDD
:1012DC002AD8122B59D801A252F823F06313000814
:1012EC003D1300084F1300089113000897130008D2
:1012FC00971300089713000897130008971300081A
:10130C009713000897130008971300089713000809
:10131C0097130008971300089713000897130008F9
:10132C004513000859130008824A934213D02CE04D
:10133C003B68DB683B6229E03B68DB6804333B625B
:10134C0024E03B68DB6808333B621FE03B68DB68EA
:10135C000C333B621AE03B689B68002B02D10423E0
:10136C003B6213E03B689B68012B05D108233B6271
:10137C007B68FA691A6109E008233B627B68FA69A9
:10138C005A6103E000233B6200E000BFBB69FF2B06
:10139C0001D87B6801E07B6804337B61BB69FF2B60
:1013AC0002D87B6A9B0002E07B6A083B9B003B6196
:1013BC007B691A680F213B6901FA03F3DB431A407E
:1013CC00396A3B6901FA03F31A437B691A603B687B
:1013DC005B6803F08053002B00F09080564B9B69A8
:1013EC00554A43F001039361534B9B6903F001038E
:1013FC00BB60BB68514A7B6A9B08023352F82330AE
:10140C00FB607B6A03F003039B000F2202FA03F3D9
:10141C00DB43FA681340FB607B68494A93420DD06A
:10142C007B68484A934207D07B68474A934201D174
:10143C00022304E0032302E0012300E000237A6A84
:10144C0002F0030292009340FA681343FB603B499D
:10145C007B6A9B080233FA6841F823203B685B687F
:10146C0003F48033002B06D0384B1A683749BB691C
:10147C0013430B6006E0354B1A68BB69DB433349F9
:10148C0013400B603B685B6803F40033002B06D001
:10149C002E4B5A682D49BB6913434B6006E02B4B0E
:1014AC005A68BB69DB43294913404B603B685B6856
:1014BC0003F48013002B06D0244B9A682349BB6994
:1014CC0013438B6006E0214B9A68BB69DB431F49D1
:1014DC0013408B603B685B6803F40013002B06D051
:1014EC001A4BDA681949BB691343CB6006E0174BFA
:1014FC00DA68BB69DB4315491340CB607B6A013367
:10150C007B623B681A687B6A22FA03F3002B7FF438
:10151C00AFAE00BF00BF2C37BD4680BC704700BFCC
:10152C0000003210000031100000221000002110C9
:10153C0000001210000011100010024000000140C9
:10154C0000080140000C0140001001400004014063
:10155C0080B485B000AF78600B467B807B689A685E
:10156C007B881340002B02D00123FB7301E0002386
:10157C00FB73FB7B18461437BD4680BC704780B4A8
:10158C0083B000AF78600B467B8013467B707B7812
:10159C00002B03D07A887B681A6103E07B881A04DD
:1015AC007B681A6100BF0C37BD4680BC704780B4A5
:1015BC0085B000AF78600B467B807B68DB68FB6096
:1015CC007A88FB6813401A04FB68D9437B880B406C
:1015DC001A437B681A6100BF1437BD4680BC704744
:1015EC0080B586B000AF78607B68002B01D10123F9
:1015FC006CE27B681B6803F00103002B00F0878012
:10160C00924B5B6803F00C03042B0CD08F4B5B6884
:10161C0003F00C03082B12D18C4B5B6803F4803362
:10162C00B3F5803F0BD1894B1B6803F40033002BBF
:10163C006CD07B685B68002B68D1012346E27B6829
:10164C005B68B3F5803F06D1804B1B687F4A43F43F
:10165C00803313602EE07B685B68002B0CD17B4BD6
:10166C001B687A4A23F480331360784B1B68774AE3
:10167C0023F4802313601DE07B685B68B3F5A02F17
:10168C000CD1724B1B68714A43F4802313606F4B6F
:10169C001B686E4A43F4803313600BE06B4B1B6882
:1016AC006A4A23F480331360684B1B68674A23F43F
:1016BC00802313607B685B68002B13D0FFF7B6FCAC
:1016CC00386108E0FFF7B2FC02463B69D31A642B81
:1016DC0001D90323FAE15D4B1B6803F40033002BA3
:1016EC00F0D014E0FFF7A2FC386108E0FFF79EFC95
:1016FC0002463B69D31A642B01D90323E6E1534B11
:10170C001B6803F40033002BF0D100E000BF7B68B2
:10171C001B6803F00203002B63D04C4B5B6803F097
:10172C000C03002B0BD0494B5B6803F00C03082B0C
:10173C001CD1464B5B6803F48033002B16D1434B12
:10174C001B6803F00203002B05D07B681B69012B7F
:10175C0001D00123BAE13D4B1B6823F0F8027B68F2
:10176C005B69DB00394913430B603AE07B681B690A
:10177C00002B20D0364B01221A60FFF757FC386142
:10178C0008E0FFF753FC02463B69D31A022B01D940
:10179C0003239BE12D4B1B6803F00203002BF0D0BD
:1017AC002A4B1B6823F0F8027B685B69DB00274936
:1017BC0013430B6015E0264B00221A60FFF736FC32
:1017CC00386108E0FFF732FC02463B69D31A022B62
:1017DC0001D903237AE11D4B1B6803F00203002B94
:1017EC00F0D17B681B6803F00803002B3AD07B68B0
:1017FC009B69002B19D0174B01221A60FFF716FCBE
:10180C00386108E0FFF712FC02463B69D31A022B41
:10181C0001D903235AE10D4B5B6A03F00203002B41
:10182C00F0D0012000F0A6FA1CE00A4B00221A604E
:10183C00FFF7FCFB38610FE0FFF7F8FB02463B6952
:10184C00D31A022B08D9032340E100BF0010024039
:10185C0000004242800442429E4B5B6A03F002034A
:10186C00002BE9D17B681B6803F00403002B00F00C
:10187C00A6800023FB75974BDB6903F08053002B8C
:10188C000DD1944BDB69934A43F08053D361914B58
:10189C00DB6903F08053BB60BB680123FB758E4B87
:1018AC001B6803F48073002B18D18B4B1B688A4A7E
:1018BC0043F480731360FFF7B9FB386108E0FFF75E
:1018CC00B5FB02463B69D31A642B01D90323FDE017
:1018DC00814B1B6803F48073002BF0D07B68DB68B2
:1018EC00012B06D17B4B1B6A7A4A43F0010313622E
:1018FC002DE07B68DB68002B0CD1764B1B6A754A9C
:10190C0023F001031362734B1B6A724A23F0040326
:10191C0013621CE07B68DB68052B0CD16D4B1B6ADA
:10192C006C4A43F0040313626A4B1B6A694A43F026
:10193C00010313620BE0674B1B6A664A23F0010339
:10194C001362644B1B6A634A23F0040313627B68C3
:10195C00DB68002B15D0FFF769FB38610AE0FFF755
:10196C0065FB02463B69D31A41F28832934201D996
:10197C000323ABE0574B1B6A03F00203002BEED0A2
:10198C0014E0FFF753FB38610AE0FFF74FFB024608
:10199C003B69D31A41F28832934201D9032395E073
:1019AC004C4B1B6A03F00203002BEED1FB7D012B89
:1019BC0005D1484BDB69474A23F08053D3617B68E0
:1019CC00DB69002B00F08180424B5B6803F00C0359
:1019DC00082B61D07B68DB69022B46D13F4B002280
:1019EC001A60FFF723FB386108E0FFF71FFB024684
:1019FC003B69D31A022B01D9032367E0354B1B68D3
:101A0C0003F00073002BF0D17B681B6AB3F5803FA9
:101A1C0008D1304B5B6823F400327B689B682D49FE
:101A2C0013434B602B4B5B6823F474127B68196A6D
:101A3C007B685B6A0B43274913434B60274B01229E
:101A4C001A60FFF7F3FA386108E0FFF7EFFA024685
:101A5C003B69D31A022B01D9032337E01D4B1B68BA
:101A6C0003F00073002BF0D02FE01C4B00221A6007
:101A7C00FFF7DCFA386108E0FFF7D8FA02463B6959
:101A8C00D31A022B01D9032320E0124B1B6803F05D
:101A9C000073002BF0D118E07B68DB69012B01D1BE
:101AAC00012313E00B4B5B68FB60FB6803F4803293
:101ABC007B681B6A9A4206D1FB6803F470127B6840
:101ACC005B6A9A4201D0012300E0002318461837C4
:101ADC00BD4680BD001002400070004060004242D4
:101AEC0080B584B000AF786039607B68002B01D181
:101AFC000123D0E06A4B1B6803F007033A689A4253
:101B0C0010D9674B1B6823F0070265493B681343E8
:101B1C000B60634B1B6803F007033A689A4201D0D1
:101B2C000123B8E07B681B6803F00203002B20D074
:101B3C007B681B6803F00403002B05D0594B5B68D2
:101B4C00584A43F4E06353607B681B6803F0080356
:101B5C00002B05D0534B5B68524A43F460535360DF
:101B6C00504B5B6823F0F0027B689B684D49134334
:101B7C004B607B681B6803F00103002B40D07B6833
:101B8C005B68012B07D1474B1B6803F40033002B18
:101B9C0015D101237FE07B685B68022B07D1414B99
:101BAC001B6803F00073002B09D1012373E03D4B3C
:101BBC001B6803F00203002B01D101236BE0394BAE
:101BCC005B6823F003027B685B68364913434B6008
:101BDC00FFF72CFAF8600AE0FFF728FA0246FB68D8
:101BEC00D31A41F28832934201D9032353E02D4B8F
:101BFC005B6803F00C027B685B689B009A42EBD13C
:101C0C00274B1B6803F007033A689A4210D2244B07
:101C1C001B6823F0070222493B6813430B60204BDF
:101C2C001B6803F007033A689A4201D0012332E0A3
:101C3C007B681B6803F00403002B08D0194B5B680E
:101C4C0023F4E0627B68DB68164913434B607B68C6
:101C5C001B6803F00803002B09D0124B5B6823F4BC
:101C6C0060527B681B69DB000E4913434B6000F02C
:101C7C0021F802460B4B5B681B0903F00F030A4962
:101C8C00CB5C22FA03F3094A1360094B1B68184614
:101C9C00FFF78AF9002318461037BD4680BD00BFF8
:101CAC0000200240001002400426000874000020AE
:101CBC007800002090B48AB000AF2A4B3C1D0FCBAB
:101CCC0084E80F0040F201233B800023FB610023DA
:101CDC00BB6100237B6200237B6100233B62224BB0
:101CEC005B68FB61FB6903F00C03042B02D0082B2F
:101CFC0003D02DE01D4B3B622DE0FB699B0C03F0E8
:101D0C000F0307F12802134413F8243C7B61FB6991
:101D1C0003F48033002B13D0134B5B685B0C03F084
:101D2C00010307F12802134413F8283CBB617B69BB
:101D3C000E4A02FB03F2BB69B2FBF3F37B6204E0D5
:101D4C007B690B4A02FB03F37B627B6A3B6202E01A
:101D5C00064B3B6200BF3B6A18462837BD4690BC19
:101D6C00704700BFF42500080010024000127A00F2
:101D7C0000093D0080B485B000AF78600A4B1B6849
:101D8C000A4AA2FB03235B0A7A6802FB03F3FB609B
:101D9C0000BFFB685A1EFA60002BF9D100BF00BFD0
:101DAC001437BD4680BC704774000020D34D6210C0
:101DBC0080B582B000AF78607B68002B01D1012325
:101DCC0041E07B6893F83D30DBB2002B06D17B6899
:101DDC00002283F83C207868FEF782FF7B680222A1
:101DEC0083F83D207B681A687B68043319461046DB
:101DFC0000F06AFA7B68012283F846207B68012296
:101E0C0083F83E207B68012283F83F207B68012207
:101E1C0083F840207B68012283F841207B680122F3
:101E2C0083F842207B68012283F843207B680122DF
:101E3C0083F844207B68012283F845207B680122CB
:101E4C0083F83D20002318460837BD4680BD0000AE
:101E5C0080B485B000AF78607B6893F83D30DBB21E
:101E6C00012B01D0012335E07B68022283F83D2051
:101E7C007B681B68DA687B681B6842F00102DA60D9
:101E8C007B681B68164A934209D07B681B68B3F1C8
:101E9C00804F04D07B681B68124A934211D17B6837
:101EAC001B689B6803F00703FB60FB68062B10D0D4
:101EBC007B681B681A687B681B6842F001021A6019
:101ECC0007E07B681B681A687B681B6842F001029C
:101EDC001A60002318461437BD4680BC704700BFFB
:101EEC00002C01400004004080B582B000AF786047
:101EFC007B681B681B6903F00203022B22D17B68F1
:101F0C001B68DB6803F00203022B1BD17B681B6888
:101F1C006FF002021A617B6801221A777B681B68DA
:101F2C009B6903F00303002B03D0786800F0B1F930
:101F3C0005E0786800F0A4F9786800F0B3F97B68E4
:101F4C0000221A777B681B681B6903F00403042BBF
:101F5C0022D17B681B68DB6803F00403042B1BD1C4
:101F6C007B681B686FF004021A617B6802221A7787
:101F7C007B681B689B6903F44073002B03D0786863
:101F8C0000F087F905E0786800F07AF9786800F0DD
:101F9C0089F97B6800221A777B681B681B6903F040
:101FAC000803082B22D17B681B68DB6803F008034D
:101FBC00082B1BD17B681B686FF008021A617B68C9
:101FCC0004221A777B681B68DB6903F00303002B80
:101FDC0003D0786800F05DF905E0786800F050F9FE
:101FEC00786800F05FF97B6800221A777B681B68C1
:101FFC001B6903F01003102B22D17B681B68DB6874
:10200C0003F01003102B1BD17B681B686FF01002C0
:10201C001A617B6808221A777B681B68DB6903F4FA
:10202C004073002B03D0786800F033F905E0786832
:10203C0000F026F9786800F035F97B6800221A77F1
:10204C007B681B681B6903F00103012B0ED17B68B5
:10205C001B68DB6803F00103012B07D17B681B684D
:10206C006FF001021A617868FEF760FD7B681B68EF
:10207C001B6903F08003802B0ED17B681B68DB6827
:10208C0003F08003802B07D17B681B686FF0800204
:10209C001A61786800F067FA7B681B681B6903F0AB
:1020AC004003402B0ED17B681B68DB6803F04003B8
:1020BC00402B07D17B681B686FF040021A6178686F
:1020CC0000F0F9F87B681B681B6903F02003202BD8
:1020DC000ED17B681B68DB6803F02003202B07D133
:1020EC007B681B686FF020021A61786800F032FA86
:1020FC0000BF0837BD4680BD80B584B000AF7860A6
:10210C0039607B6893F83C30012B01D10223B3E09A
:10211C007B68012283F83C207B68022283F83D20F7
:10212C007B681B689B68FB60FB6823F07703FB6094
:10213C00FB6823F47F43FB607B681B68FA689A603A
:10214C003B681B68B3F5005F3ED0B3F5005F00F24F
:10215C008780B3F5805F00F08580B3F5805F7FD812
:10216C00702B1AD0702B7BD8602B50D0602B77D86B
:10217C00502B3CD0502B73D8402B58D0402B6FD8C1
:10218C00302B64D0302B6BD8202B60D0202B67D811
:10219C00002B5CD0102B5AD062E07B6818683B682F
:1021AC0099683B685A683B68DB6800F05CF97B68AF
:1021BC001B689B68FB60FB6843F07703FB607B68E4
:1021CC001B68FA689A604EE07B6818683B689968EF
:1021DC003B685A683B68DB6800F045F97B681B6814
:1021EC009A687B681B6842F480429A603BE07B688B
:1021FC0018683B6859683B68DB681A4600F0BCF805
:10220C007B681B685021184600F013F92BE07B68A3
:10221C0018683B6859683B68DB681A4600F0DAF8C6
:10222C007B681B686021184600F003F91BE07B6893
:10223C0018683B6859683B68DB681A4600F09CF8E4
:10224C007B681B684021184600F0F3F80BE07B68B4
:10225C001A683B681B681946104600F0EAF802E061
:10226C0000BF00E000BF7B68012283F83D207B6843
:10227C00002283F83C20002318461037BD4680BD51
:10228C0080B483B000AF786000BF0C37BD4680BC13
:10229C00704780B483B000AF786000BF0C37BD4688
:1022AC0080BC704780B483B000AF786000BF0C373F
:1022BC00BD4680BC704780B483B000AF786000BF6F
:1022CC000C37BD4680BC704780B485B000AF7860D9
:1022DC0039607B681B68FB607B68254A934207D09A
:1022EC007B68B3F1804F03D07B68224A934208D1BC
:1022FC00FB6823F07003FB603B685B68FA68134370
:10230C00FB607B681A4A934207D07B68B3F1804F1D
:10231C0003D07B68174A934208D1FB6823F44073BF
:10232C00FB603B68DB68FA681343FB60FB6823F0D7
:10233C0080023B685B691343FB607B68FA681A6038
:10234C003B689A687B68DA623B681A687B689A62B9
:10235C007B68074A934203D13B681A697B681A630E
:10236C007B6801225A6100BF1437BD4680BC7047A0
:10237C00002C01400004004080B487B000AFF8602E
:10238C00B9607A60FB681B6A7B61FB681B6A23F08F
:10239C000102FB681A62FB689B693B613B6923F095
:1023AC00F0033B617B681B013A6913433B617B691A
:1023BC0023F00A037B617A69BB6813437B61FB687A
:1023CC003A699A61FB687A691A6200BF1C37BD468C
:1023DC0080BC704780B487B000AFF860B9607A6099
:1023EC00FB681B6A23F01002FB681A62FB689B698E
:1023FC007B61FB681B6A3B617B6923F470437B61E7
:10240C007B681B037A6913437B613B6923F0A00350
:10241C003B61BB681B013A6913433B61FB687A69FA
:10242C009A61FB683A691A6200BF1C37BD4680BCD2
:10243C00704780B485B000AF786039607B689B686A
:10244C00FB60FB6823F07003FB603A68FB68134386
:10245C0043F00703FB607B68FA689A6000BF14378F
:10246C00BD4680BC704780B487B000AFF860B960DF
:10247C007A603B60FB689B687B617B6923F47F43DC
:10248C007B613B681A027B681A43BB6813437A6909
:10249C0013437B61FB687A699A6000BF1C37BD46A9
:1024AC0080BC704780B485B000AF786039607B68C1
:1024BC0093F83C30012B01D1022341E07B680122CF
:1024CC0083F83C207B68022283F83D207B681B68E4
:1024DC005B68FB607B681B689B68BB60FB6823F0D8
:1024EC007003FB603B681B68FA681343FB607B68F6
:1024FC001B68FA685A607B681B68144A934209D0BF
:10250C007B681B68B3F1804F04D07B681B68104A52
:10251C0093420CD1BB6823F08003BB603B685B68C3
:10252C00BA681343BB607B681B68BA689A607B68A7
:10253C00012283F83D207B68002283F83C20002395
:10254C0018461437BD4680BC704700BF002C0140B4
:10255C000004004080B483B000AF786000BF0C373B
:10256C00BD4680BC704780B483B000AF786000BFBC
:10257C000C37BD4680BC704770B500260C4D0D4C19
:10258C00641BA410A64209D100F022F800260A4DC3
:10259C000A4C641BA410A64205D170BD55F8043B2F
:1025AC0098470136EEE755F8043B98470136F2E7B9
:1025BC001426000814260008142600081826000803
:1025CC0003460244934200D1704703F8011BF9E71C
:1025DC00F8B500BFF8BC08BC9E467047F8B500BF04
:0825EC00F8BC08BC9E467047D4
:1025F40002030405060708090A0B0C0D0E0F101040
:10260400000000000000000001020304060708099E
:042614003101000888
:042618000D010008A8
:10261C0001000000010000000100000001000000AA
:10262C00010000000100000001000000010000009A
:10263C00010000000100000001000000010000008A
:10264C00F401000046000000F4010000C00000008E
:10265C00F9000000A4000000B00000009900000088
:10266C009200000082000000F800000080000000D2
:10267C009000000088130000B80B0000D007000089
:10268C00010000000024F400100000000100000014
:0400000508000F3DA3
:00000001FF
